:020000040800F2
:1000000078060020CD0100081F0C0008D706000864
:100010007D0B00087F020008791000080000000036
:10002000000000000000000000000000CD0C0008EF
:100030009104000800000000990C0008690E0008F7
:10004000E7010008E7010008E7010008E7010008F0
:10005000E7010008E7010008E7010008E7010008E0
:10006000E7010008E7010008E7010008E7010008D0
:10007000E7010008E7010008E7010008E7010008C0
:10008000E7010008E7010008E7010008E7010008B0
:10009000E7010008E7010008E7010008E7010008A0
:1000A000E7010008E7010008E7010008E701000890
:1000B000AD0E0008E7010008E7010008E7010008AD
:1000C000E7010008E7010008E7010008E701000870
:1000D000E7010008E7010008E7010008E701000860
:1000E00001050008E7010008E7010008E701000832
:1000F000E7010008E7010008E7010008E701000840
:10010000E7010008E7010008E7010008E70100082F
:10011000E7010008E7010008E7010008E70100081F
:10012000E7010008E7010008E7010008E70100080F
:1001300000F002F800F03AF80AA090E8000C8244BF
:100140008344AAF10107DA4501D100F02FF8AFF29C
:10015000090EBAE80F0013F0010F18BFFB1A43F0A5
:10016000010318475017000070170000103A24BF11
:1001700078C878C1FAD8520724BF30C830C144BF0C
:1001800004680C607047000000230024002500264E
:10019000103A28BF78C1FBD8520728BF30C148BFEA
:1001A0000B6070471FB51FBD10B510BD00F031F8D2
:1001B0001146FFF7F7FF00F081FF00F04FF803B49E
:1001C000FFF7F2FF03BC00F053F800000948804736
:1001D00009480047FEE7FEE7FEE7FEE7FEE7FEE729
:1001E000FEE7FEE7FEE7FEE704480549054A064B41
:1001F000704700006D0E00083101000878000020F3
:1002000078060020780200207802002070477047AE
:100210007047754600F028F8AE460500694653461B
:1002200020F00700854618B020B5FFF7DDFFBDE8D8
:1002300020404FF000064FF000074FF000084FF04D
:10024000000B21F00701AC46ACE8C009ACE8C009DE
:10025000ACE8C009ACE8C0098D4670470446AFF36E
:1002600000802046FFF7ABFF0048704714000020D5
:1002700001491820ABBEFEE7260002007047FEE7EA
:1002800005496FF027000870044908700449087098
:100290000449087070470000040000200500002099
:1002A00006000020070000200449282008700449A7
:1002B0000870044908700449087070470400002061
:1002C00005000020060000200700002006496FF00E
:1002D0001300064A08702821117005490870054965
:1002E0003220087070470000040000200500002044
:1002F00006000020070000202DE9F0414848494C45
:100300004FF4005190F90020474D8F102068002ACB
:100310001ADD904203D2284600F0DBF902E02846BD
:1003200000F0D5F93946284600F0D1F93F48414E52
:1003300090F900103E48002928DD22688A420FD239
:10034000394600F0C6F90EE0E9DA52429042E6D2B0
:10035000284600F0BCF93946284600F0BAF9E5E72E
:10036000394600F0B4F90121304600F0B0F93248C6
:100370004FF4007790F90000002829DD21688142C0
:1003800011D24021304600F0A4F910E0E8DA2268EA
:1003900049428A42E4D2394600F099F901213046B7
:1003A00000F097F9E3E74021304600F090F9394634
:1003B000284600F08CF9214890F90000002815DD4E
:1003C0002168814221D21021304600F082F920E0DC
:1003D000E9DA216840428142E5D24021304600F00E
:1003E00076F93946284600F074F9E4E70DDA216819
:1003F0004042814209D21021304600F068F930466F
:10040000BDE8F041042100F064B91021304600F04D
:100410005EF93046BDE8F041042100F058B9000013
:100420000400002000000020002001400500002002
:1004300000100140001401400600002007000020C9
:1004400006492820074A087005496FF01300087014
:100450003221117004490870704700000400002028
:1004600005000020060000200700002004490020AD
:1004700008700449087004490870044908707047FE
:1004800004000020050000200600002007000020D6
:10049000704710B5044602E08C2000F005F8641E99
:1004A000E4B2F9D210BD000031B50C4D0098012125
:1004B00084B2284600F05AFD2146284600F076FD19
:1004C00003E0284600F05CFD0446012CF9D82846DC
:1004D000BDE83840002100F049BD000000040040A4
:1004E00000EBC0014FF0E0204161016941F00101E2
:1004F00001610169C903FCD5002101618161704777
:1005000010B54FF48064204600F010F8002806D0A3
:10051000204600F005F8BDE8104000F017B910BD06
:10052000014908607047000014040140064A014672
:1005300000201268044B0A4014331B680B4202D09F
:10054000002A00D0012070470004014030B51A4A4B
:100550008379016853B313688B431360111D0B68D3
:100560000468A3430B60017911440B6804682343BA
:100570000B60114B083319680468A14319601C1DF6
:1005800021680568A94321604179102905D01144EB
:100590000A68006802430A6030BD196802681143A6
:1005A0001960216800680143216030BD0079104462
:1005B00002688A43026030BD0004014010B5012189
:1005C000042000F077FB0121082000F073FB0121DB
:1005D000102000F06FFB0121202000F06BFB0121B7
:1005E000402000F067FB0121802000F063FB012127
:1005F000BDE81040080200F05DBB000010B58A079E
:1006000021F003040649120F21440F238C68934004
:100610009C438C608B68904003438B6010BD00004E
:1006200000000140F0B5CC78002204F00F03E4068E
:1006300001D58C7823430C784FF00F0C14F0FF0F8A
:100640004FF0010E1BD005680E880EFA02F426400A
:10065000A64210D196000CFA06F725EA070703FA1E
:1006600006F5CE783D43282E02D0482E02D002E077
:10067000446100E00461521C082AE5D305600A8841
:10068000FF2A1CD94468002202F108060EFA06F57A
:100690000E882E40AE420ED196000CFA06F7BC43EF
:1006A00003FA06F7CE783C43282E00D14561CE7878
:1006B000482E00D10561521C082AE5D34460F0BDE4
:1006C0000246002092680A4200D001207047416132
:1006D000704701617047FEE77FB50121084600F0D1
:1006E000E9FA4FF48064ADF80C4048208DF80F0013
:1006F00003208DF80E0003A91348FFF793FF0A218A
:100700000320FFF77BFF0C2000948DF805000024E8
:100710008DF8044001258DF806506846FFF716FF56
:100720004FF4E06000F0AEFA28208DF808008DF854
:1007300009408DF80A408DF80B5002A800F070FABD
:1007400000F084FC7FBD0000001401402DE9F0475B
:1007500000240F20FFF79DFE3A4E4FF48067394684
:100760003046FFF7ADFF012865D0374928200870D3
:1007700002E00120FFF78DFE39463046FFF7A0FF6B
:100780000028F6D0DFF8C4900025B046002602E02D
:100790000120FFF77EFE39464046FFF791FF002813
:1007A000F6D102E00120FFF774FE39464046FFF71C
:1007B00087FF0028F6D006E00120FFF76AFE641CE0
:1007C000E4B21E2C37D239464046FFF779FF0028A5
:1007D000F2D119F805004946400809F80500082C2F
:1007E00003D340F0800009F80500761C0024F6B21F
:1007F000082ED0D36D1CEDB2042DC7D3C97899F85B
:100800000200C943C9B2884215D11149432816D004
:1008100005DC152809D040280DD1492006E04428E0
:100820000BD0462807D1412000E04220087007493C
:100830000120491E0870BDE8F0874320F6E74420F8
:10084000F4E70000001401400B0000200E0000201F
:100850000A00002070B500F06DF8294D4FF4805467
:1008600021462846FFF733FF40F6B830FFF738FE41
:1008700021462846FFF72DFF3220FFF731FEE22008
:1008800000F0BCF80F20FFF72BFE2C2000F0B6F88C
:100890000F20FFF725FE2E2000F0B0F80F20FFF705
:1008A0001FFE2F2000F0AAF80F20FFF719FE2420CA
:1008B00000F0A4F8812000F0A1F8162000F09EF8C6
:1008C000A22000F09BF8C82000F098F8A02000F0CB
:1008D00095F8402000F092F8AF2000F08FF800F07B
:1008E00073F8002107A2084600F0F0F80AA20321DD
:1008F000002000F0A1FABDE87040202000F012B8FE
:1009000000100140BABDCCABB5E7D7D3D3D0CFDE12
:10091000B9ABCBBE00000000436F6D6D616E643AF1
:100920000000000001B56A460321482000F084FA67
:1009300008BD0000F8B54FF48060ADF80000032555
:100940001B4E8DF8025010248DF803406946304646
:10095000FFF768FE2002ADF800008DF802508DF818
:10096000034069463046FFF75DFE0220ADF8000007
:10097000104E8DF802508DF8034069463046FFF75F
:1009800051FE0820ADF800008DF802508DF80340AC
:1009900069463046FFF746FE2020ADF800008DF88E
:1009A00002508DF8034069463046FFF73BFEF8BD24
:1009B00000100140001401400249CA684240CA6068
:1009C000704700000020014070B5002505F1B0001F
:1009D000C0B200F013F8102000F010F8002000F072
:1009E0000DF80024002000F03DF8641CE4B2802CD7
:1009F000F8D36D1CEDB2082DE8D370BD2DE9F041A0
:100A0000DFF8588005464FF4806739464046FFF7C7
:100A10005EFE134E02213046FFF759FE00240821E6
:100A20003046FFF754FE28064FF02001304602D52D
:100A3000FFF74FFE01E0FFF74AFE08213046FFF7BF
:100A400048FE6806641C050E64B2082CE7DB3946D4
:100A50004046BDE8F041FFF73CBE000000100140F9
:100A6000001401402DE9F041DFF8588005464FF4AD
:100A7000806739464046FFF72AFE134E0221304672
:100A8000FFF727FE002408213046FFF720FE280646
:100A90004FF02001304602D5FFF71BFE01E0FFF7C3
:100AA00016FE08213046FFF714FE6806641C050E8A
:100AB00064B2082CE7DB39464046BDE8F041FFF759
:100AC00008BE000000100140001401402DE9F84F5D
:100AD00007464806000E1646072801D8802F02D97F
:100AE0000020BDE8F88FB030C0B28346FFF786FF24
:100AF0003DE05846FFF782FF380907F00F0110303C
:100B000082460091FFF77AFF0098FFF777FF0025F4
:100B1000194805EB051100EB4108317898F82000E1
:100B200088421FD198F82100717888421AD1002498
:100B30000BF101090CE0102C0AD109F0FF00FFF7BE
:100B40005DFF0AF0FF00FFF759FF0098FFF756FF1F
:100B500018F80400FFF786FF641CE4B2202CEAD3E7
:100B60001037FFB26D1CEDB2322DD1D3B61C3078E8
:100B70000028BED10120B4E764110008FEE70000A0
:100B8000F8B54FF40050ADF8000002208DF80200D7
:100B90001C4E10248DF8034069463046FFF742FD95
:100BA000E501ADF8005069463046FFF73BFDADF872
:100BB000005069461448FFF735FD0120134DADF88C
:100BC000000069462846FFF72DFD4020ADF80000E3
:100BD00069462846FFF726FD6001ADF8000069462A
:100BE0003046FFF71FFDADF8004069462846FFF785
:100BF00019FD0420ADF8000069462846FFF712FDF4
:100C0000F8BD000000200140001001400014014028
:100C100010B5FFF7B5FFBDE81040FFF727BC7047E0
:100C200030B50F23C27801780125F2B1144A126859
:100C300001F1E02102F4E062C2F5E062120AC2F1C1
:100C40000404D3404278A24084781C40144322011B
:100C500081F80024007800F01F018D4040098000D9
:100C600000F1E020C0F8005130BD01F01F008540C8
:100C70004809800000F1E020C0F8805130BD00003C
:100C80000CED00E00249084302490860704700008B
:100C90000000FA050CED00E070470000044A00294E
:100CA000D16901D0014300E08143D1617047000068
:100CB00000100240044A0029916901D0014300E07C
:100CC00081439161704700000010024070470000AE
:100CD00003460020054A02E0994206D0401C00EB82
:100CE00000111144097C2029F6D1704774120008C4
:100CF00038B54FF48054ADF8004010208DF8030053
:100D00000320064D8DF8020069462846FFF78AFC4D
:100D100021462846FFF7DDFC38BD000000140140E5
:100D20000CB50022264800920192016841F48031FE
:100D300001604FF4A063016801F400310191009952
:100D4000491C0091019911B900999942F3D10168A8
:100D5000890333D5012101911A490A6842F0100232
:100D60000A600A6822F003020A600A6842F002027E
:100D70000A604168416041684160416841F48061B6
:100D80004160416821F47C114160416841F4E811FF
:100D90004160016841F08071016001688901FCD502
:100DA000416821F003014160416841F00201416066
:100DB0004168C1F381010229FAD10CBD01920CBD39
:100DC00000100240002002402DE9F041174606467F
:100DD00007292DD8802E2BD8B031CDB22846FFF769
:100DE0000DFE3409103406F00F082046FFF706FE0A
:100DF0004046FFF703FE3846FFF76AFFC0B20D49D1
:100E000000EB0010002647186D1C0AE0082E08D1E0
:100E1000E8B2FFF7F3FD2046FFF7F0FD4046FFF78D
:100E2000EDFDB85DFFF71EFE761CF6B2102EEDD379
:100E3000BDE8F081741200082DE9F04116460D4618
:100E4000074604460BE0E9B2E0B2FFF7BDFF04F14C
:100E500010000834802801D93C46AD1C761C32783D
:100E6000002AF0D1BDE8F081704700000C4801680D
:100E700041F00101016041680A4A11404160016886
:100E8000094A11400160016821F480210160416834
:100E900021F4FE0141604FF41F018160FFF740BF64
:100EA000001002400000FFF8FFFFF6FE10B5012120
:100EB0008C07204600F066F800281BD00121204650
:100EC00000F051F80C490878401CC0B208700A289C
:100ED00010D300240C700949094A0868401C0860B6
:100EE00013785B1C1370322800D30C60BDE81040EF
:100EF000FFF702BA10BD00000C0000200000002027
:100F0000080000207FB501210846FFF7C7FE6320D7
:100F1000ADF804004720ADF8000000244FF08045F4
:100F2000ADF80640ADF802406946284600F040F8AA
:100F30000121284600F017F801221146284600F04A
:100F40002DF80121284600F011F81C208DF80C0026
:100F50008DF80D4001208DF80E008DF80F0003A8CC
:100F6000FFF75EFE7FBDC9430182704700290188FB
:100F700002D041F0010101E021F001010180704740
:100F8000808C704702460020138A92890B4202EA45
:100F9000010202D0002A00D001207047002A828975
:100FA00001D00A4300E08A43828170478184704700
:100FB00030B502881B4C1C4DA0420DD0A8420BD06E
:100FC000B0F1804F08D0194B984205D0184B984289
:100FD00002D0184B984203D122F070034A881A437A
:100FE000154B984206D0154B984203D022F440731B
:100FF000CA881A4302808A8882850A880285A042AC
:101000000AD0A84208D00E4A904205D00D4A90421C
:1010100002D00D4A904201D1097A018601218182D4
:1010200030BD0000002C01400034014000040040AD
:1010300000080040000C0040001000400014004078
:101040000040014000440140004801400EB501212C
:101050000220FFF723FE0120ADF804004720ADF881
:1010600000001020ADF8020069460248FFF7A0FF1B
:101070000EBD000000040040FEE7000038B54FF44C
:101080000044ADF8004010208DF803000320064D09
:101090008DF8020069462846FFF7C4FA2146284623
:1010A000FFF717FB38BD0000002001404FF0E020A3
:1010B000016921F00401016170470000FFF7F6FFAC
:1010C000FFF77CFAFFF7DAFFFFF7C4FBFFF704FB3B
:1010D000FFF718FFFFF79CFDFFF70AFE1F4E204C9D
:1010E000002520780528FCD325706078401CC0B20C
:1010F0006070282804D365704FF40040FFF75CFC53
:10110000E078401E10F0FF00E07003D10120E07095
:10111000FFF7ACF930780128E3D1357094F902007B
:101120004138092814D2DFE800F005080B0E13132C
:1011300013131100FFF7B8F80AE0FFF7A1F807E072
:10114000FFF7C4F804E0FFF77BF901E0FFF78EF941
:1011500094F90200FFF7E6FBC3E700000D00002052
:101160000800002080FC96E584FC0008C8494AC8B5
:1011700008080000807F024C807F80601F00003FD5
:1011800040407800BABD20202020202020FF2020D1
:1011900020202020200080804020100C1360030CB1
:1011A000102040808000CCAB0000F888888888FF41
:1011B00088888888F800000000001F080808087F59
:1011C000888888889F80F000B5E78082828282824A
:1011D00082E2A2928A8682808000000000000040A5
:1011E000807F0000000000000000D7D304040484C6
:1011F000E43C2724242424E4040404000402010021
:10120000FF0909090949897F00000000D3D000FEC9
:10121000225A8600FE9292929292FE00000000FFF7
:1012200004080700FF4020030C1422414000CFDED9
:101230000080402018068000071820408000000031
:1012400001002070282621202024386000010100A0
:10125000B9AB001012929292929292121202FE0078
:1012600000000000003F101010103F0040807F0081
:101270000000CBBE000000FC000000000000000CDD
:101280000C00000021000804020804020000000015
:1012900000000000002220E03820A0782000020F8B
:1012A00002020F02020023003048FC8830000000D8
:1012B00006081F08070000247088F080609800006E
:1012C00000080601070807002500F08848B0808064
:1012D000000708090A040B08042610160E00000077
:1012E0000000000000000000000027000000E018DF
:1012F0000402000000000304081000280002041883
:10130000E00000000010080601000000292020C0B5
:10131000F8C020200001010007000101002A404020
:1013200040F84040400000000003000000002B0097
:1013300000000000000000202C1C00000000002C19
:1013400000404040404040400000000000000000DD
:101350002D0000000000000000000C0C0000000048
:10136000002E00000000C0300C0200100C03000032
:1013700000002F00E010080818E00000030408082F
:1013800004030030001010F8000000000008080FEF
:1013900008080000310030080808887000000C0AB6
:1013A0000A09080C00320030084848C8300000061E
:1013B000080808040300330080601008FC000000E7
:1013C00001020A0A0F08003400F88848488888009B
:1013D00000060808080403003500E090484898809B
:1013E0000000030C08080403003600380888681859
:1013F00008000000000F0000000037003048888817
:1014000048300000070908080906003800E0900885
:101410000890E00000000C090904030039000000F6
:1014200060600000000000000C0C0000003A0000AA
:1014300000400000000000002018000000003B00F9
:1014400040A0101008040000000001020204003C4B
:1014500020202020202020000101010101010100A5
:101460003D0004081010A04000000402020100002A
:10147000003E00382404844438000000000C0D00B5
:1014800000003FE010C828E818F00003040B0A0928
:101490000A0500400000E01870800000080E0901F5
:1014A000010B0C084108F8484848B00000080F0834
:1014B000080804070042E010080808083800030480
:1014C0000808080402004308F808080810E00008AB
:1014D0000F0808080403004408F88888C8081000AA
:1014E000080F0808090804004508F88888C808108B
:1014F00000080F08000100000046E0100808083846
:10150000000003040808090701004708F8888080E4
:1015100088F808080F080000080F0848000808F8B5
:10152000080800000008080F08080000490000082B
:1015300008F8080800302020201F0000004A08F8A2
:10154000C8C028180800080F08000B0C08004B083A
:10155000F8080000000000080F080808080C004CFC
:1015600008F8788078F80800080F000F000F0800CE
:101570004D08F830C00008F808080F080003040FF1
:10158000004EE01008080810E000030408080804F2
:1015900003004F08F8888888887000080F0800004A
:1015A00000000050E01008080810E00003040A0AD8
:1015B0000C1413005108F84848C8483000080F08B8
:1015C0000001030C08520070488888081800000EBB
:1015D00008080809070053180808F8080818000048
:1015E00000080F080000005408F808000008F80878
:1015F00000070808080C0700550838C80000E8383C
:10160000080000030C0700000056F80800F88008E6
:10161000F800010E0701030E010057081828C0C08A
:10162000381808080C0E01010A0C085808186880C0
:10163000681808000000080F08000000591008088A
:101640008868180800080C0B08080804005A0000F5
:1016500000FE020202000000001F101010005B00DC
:101660000418608000000000000000030C10005C03
:1016700000020202FE000000001010101F00000017
:101680005D000004020202040000000000000000EF
:10169000005E00000000000000002020202020202C
:1016A00020205F0000020000000000000000000099
:1016B00000000060008040404040800000040A09B3
:1016C00009090F086108F8404040808000000F08B9
:1016D0000808080700620080C04040408000000702
:1016E00004080808040063000080404048F8000037
:1016F00007080808080F0864008040404040800048
:10170000000709090909050065004040F0484848FC
:10171000180008080F08080000660080404040C01C
:101720004000001D2A2A2A2910006708F88040403E
:10173000408000080F080000080F0868004048C8F3
:10174000000000000008080F080800006900000001
:101750004048C8000000202020201F00006A08F830
:101760000000C0404000080F0A010E0C08006B008A
:101770000808F8000000000008080F080800006CC6
:1017800040C04040C04040C0080F08000F08000F94
:101790006D40C0804040808000080F080000080FA6
:1017A000086E00804040404080000007080808089C
:1017B00007006F40C0804040808000203F2808081C
:1017C00004030070008080404040C000000708080B
:1017D00008283F20714040C0804040400008080F6A
:1017E000080800000072008040404040C000000C2B
:1017F00009090A0A040073004040F040400000005C
:10180000000007080800007440C000000040C0004D
:101810000007080808080F087540C040000040C0D5
:1018200040000007080601000076C04000C00040EC
:10183000C040030C0403070C0300770040C0804045
:10184000C0400000080C0F030C08007840C04000A6
:101850000040C0402020231C060300007900C04047
:101860004040C0400000080C0A09080C007A000043
:10187000000040BC020200000000000F10107B00BE
:10188000000000FF000000000000003F0000007C9E
:10189000000202BC400000000010100F0000000019
:1018A0007D000000000000000000000000000000BB
:1018B00000200000D41800080000002014000000E0
:1018C0006C010008E81800081400002064060000FD
:1018D000880100080000000028282828000049008E
:0818E000000000000000000000
:0400000508000131BD
:00000001FF
